{
  "contractName": "Faucet",
  "abi": [
    {
      "inputs": [
        {
          "internalType": "contract IERC20",
          "name": "token",
          "type": "address"
        }
      ],
      "stateMutability": "nonpayable",
      "type": "constructor"
    },
    {
      "anonymous": false,
      "inputs": [
        {
          "indexed": true,
          "internalType": "address",
          "name": "from",
          "type": "address"
        },
        {
          "indexed": false,
          "internalType": "uint256",
          "name": "amount",
          "type": "uint256"
        }
      ],
      "name": "Deposit",
      "type": "event"
    },
    {
      "anonymous": false,
      "inputs": [
        {
          "indexed": true,
          "internalType": "address",
          "name": "to",
          "type": "address"
        },
        {
          "indexed": false,
          "internalType": "uint256",
          "name": "amount",
          "type": "uint256"
        }
      ],
      "name": "Withdrawal",
      "type": "event"
    },
    {
      "inputs": [],
      "name": "waitTime",
      "outputs": [
        {
          "internalType": "uint256",
          "name": "",
          "type": "uint256"
        }
      ],
      "stateMutability": "view",
      "type": "function"
    },
    {
      "inputs": [],
      "name": "withdrawalAmount",
      "outputs": [
        {
          "internalType": "uint256",
          "name": "",
          "type": "uint256"
        }
      ],
      "stateMutability": "view",
      "type": "function"
    },
    {
      "stateMutability": "payable",
      "type": "receive"
    },
    {
      "inputs": [],
      "name": "withdraw",
      "outputs": [],
      "stateMutability": "nonpayable",
      "type": "function"
    },
    {
      "inputs": [],
      "name": "getBalance",
      "outputs": [
        {
          "internalType": "uint256",
          "name": "",
          "type": "uint256"
        }
      ],
      "stateMutability": "view",
      "type": "function"
    },
    {
      "inputs": [
        {
          "internalType": "address",
          "name": "_address",
          "type": "address"
        }
      ],
      "name": "allowedToWithdraw",
      "outputs": [
        {
          "internalType": "bool",
          "name": "",
          "type": "bool"
        }
      ],
      "stateMutability": "view",
      "type": "function"
    },
    {
      "inputs": [
        {
          "internalType": "uint256",
          "name": "amount",
          "type": "uint256"
        }
      ],
      "name": "setWithdrawalAmount",
      "outputs": [],
      "stateMutability": "nonpayable",
      "type": "function"
    },
    {
      "inputs": [
        {
          "internalType": "uint256",
          "name": "amount",
          "type": "uint256"
        }
      ],
      "name": "setWaitTime",
      "outputs": [],
      "stateMutability": "nonpayable",
      "type": "function"
    },
    {
      "inputs": [
        {
          "internalType": "contract IERC20",
          "name": "token",
          "type": "address"
        }
      ],
      "name": "setToken",
      "outputs": [],
      "stateMutability": "nonpayable",
      "type": "function"
    },
    {
      "inputs": [],
      "name": "destroy",
      "outputs": [],
      "stateMutability": "nonpayable",
      "type": "function"
    }
  ],
  "bytecode": "0x60806040526802b5e3af16b18800006002556203f4806003553480156200002557600080fd5b50604051620012123803806200121283398181016040528101906200004b919062000151565b80600160006101000a81548173ffffffffffffffffffffffffffffffffffffffff021916908373ffffffffffffffffffffffffffffffffffffffff160217905550336000806101000a81548173ffffffffffffffffffffffffffffffffffffffff021916908373ffffffffffffffffffffffffffffffffffffffff1602179055505062000183565b600080fd5b600073ffffffffffffffffffffffffffffffffffffffff82169050919050565b60006200010582620000d8565b9050919050565b60006200011982620000f8565b9050919050565b6200012b816200010c565b81146200013757600080fd5b50565b6000815190506200014b8162000120565b92915050565b6000602082840312156200016a5762000169620000d3565b5b60006200017a848285016200013a565b91505092915050565b61107f80620001936000396000f3fe60806040526004361061008a5760003560e01c80633ccfd60b116100595780633ccfd60b1461019e57806383197ef0146101b5578063ccca123b146101cc578063df351aaf146101f7578063e6e268f414610220576100df565b806312065fe0146100e4578063144fa6d71461010f578063168ee33a146101385780632d291cad14610161576100df565b366100df573373ffffffffffffffffffffffffffffffffffffffff167fe1fffcc4923d04b559f4d29a8bfc6cda04eb5b0d3c460751c2402c5c5cc9109c346040516100d591906109c6565b60405180910390a2005b600080fd5b3480156100f057600080fd5b506100f961024b565b60405161010691906109c6565b60405180910390f35b34801561011b57600080fd5b5061013660048036038101906101319190610a56565b6102fd565b005b34801561014457600080fd5b5061015f600480360381019061015a9190610aaf565b6103cf565b005b34801561016d57600080fd5b5061018860048036038101906101839190610b08565b610491565b6040516101959190610b50565b60405180910390f35b3480156101aa57600080fd5b506101b361053c565b005b3480156101c157600080fd5b506101ca610836565b005b3480156101d857600080fd5b506101e16108fd565b6040516101ee91906109c6565b60405180910390f35b34801561020357600080fd5b5061021e60048036038101906102199190610aaf565b610903565b005b34801561022c57600080fd5b506102356109a7565b60405161024291906109c6565b60405180910390f35b6000600160009054906101000a900473ffffffffffffffffffffffffffffffffffffffff1673ffffffffffffffffffffffffffffffffffffffff166370a08231306040518263ffffffff1660e01b81526004016102a89190610b7a565b60206040518083038186803b1580156102c057600080fd5b505afa1580156102d4573d6000803e3d6000fd5b505050506040513d601f19601f820116820180604052508101906102f89190610baa565b905090565b60008054906101000a900473ffffffffffffffffffffffffffffffffffffffff1673ffffffffffffffffffffffffffffffffffffffff163373ffffffffffffffffffffffffffffffffffffffff161461038b576040517f08c379a000000000000000000000000000000000000000000000000000000000815260040161038290610c5a565b60405180910390fd5b80600160006101000a81548173ffffffffffffffffffffffffffffffffffffffff021916908373ffffffffffffffffffffffffffffffffffffffff16021790555050565b60008054906101000a900473ffffffffffffffffffffffffffffffffffffffff1673ffffffffffffffffffffffffffffffffffffffff163373ffffffffffffffffffffffffffffffffffffffff161461045d576040517f08c379a000000000000000000000000000000000000000000000000000000000815260040161045490610c5a565b60405180910390fd5b69021e19e0c9bab240000081111561047457600080fd5b670de0b6b3a7640000816104889190610ca9565b60028190555050565b600080600460008473ffffffffffffffffffffffffffffffffffffffff1673ffffffffffffffffffffffffffffffffffffffff1681526020019081526020016000205414156104e35760019050610537565b600460008373ffffffffffffffffffffffffffffffffffffffff1673ffffffffffffffffffffffffffffffffffffffff1681526020019081526020016000205442106105325760019050610537565b600090505b919050565b61054533610491565b610584576040517f08c379a000000000000000000000000000000000000000000000000000000000815260040161057b90610d9b565b60405180910390fd5b683635c9adc5dea0000060025411156105d2576040517f08c379a00000000000000000000000000000000000000000000000000000000081526004016105c990610e2d565b60405180910390fd5b600254600160009054906101000a900473ffffffffffffffffffffffffffffffffffffffff1673ffffffffffffffffffffffffffffffffffffffff166370a08231306040518263ffffffff1660e01b81526004016106309190610b7a565b60206040518083038186803b15801561064857600080fd5b505afa15801561065c573d6000803e3d6000fd5b505050506040513d601f19601f820116820180604052508101906106809190610baa565b10156106c1576040517f08c379a00000000000000000000000000000000000000000000000000000000081526004016106b890610ebf565b60405180910390fd5b600073ffffffffffffffffffffffffffffffffffffffff163373ffffffffffffffffffffffffffffffffffffffff161415610731576040517f08c379a000000000000000000000000000000000000000000000000000000000815260040161072890610f51565b60405180910390fd5b600160009054906101000a900473ffffffffffffffffffffffffffffffffffffffff1673ffffffffffffffffffffffffffffffffffffffff1663a9059cbb336002546040518363ffffffff1660e01b8152600401610790929190610f71565b602060405180830381600087803b1580156107aa57600080fd5b505af11580156107be573d6000803e3d6000fd5b505050506040513d601f19601f820116820180604052508101906107e29190610fc6565b50600354426107f19190610ff3565b600460003373ffffffffffffffffffffffffffffffffffffffff1673ffffffffffffffffffffffffffffffffffffffff16815260200190815260200160002081905550565b60008054906101000a900473ffffffffffffffffffffffffffffffffffffffff1673ffffffffffffffffffffffffffffffffffffffff163373ffffffffffffffffffffffffffffffffffffffff16146108c4576040517f08c379a00000000000000000000000000000000000000000000000000000000081526004016108bb90610c5a565b60405180910390fd5b60008054906101000a900473ffffffffffffffffffffffffffffffffffffffff1673ffffffffffffffffffffffffffffffffffffffff16ff5b60035481565b60008054906101000a900473ffffffffffffffffffffffffffffffffffffffff1673ffffffffffffffffffffffffffffffffffffffff163373ffffffffffffffffffffffffffffffffffffffff1614610991576040517f08c379a000000000000000000000000000000000000000000000000000000000815260040161098890610c5a565b60405180910390fd5b603c8161099e9190610ca9565b60038190555050565b60025481565b6000819050919050565b6109c0816109ad565b82525050565b60006020820190506109db60008301846109b7565b92915050565b600080fd5b600073ffffffffffffffffffffffffffffffffffffffff82169050919050565b6000610a11826109e6565b9050919050565b6000610a2382610a06565b9050919050565b610a3381610a18565b8114610a3e57600080fd5b50565b600081359050610a5081610a2a565b92915050565b600060208284031215610a6c57610a6b6109e1565b5b6000610a7a84828501610a41565b91505092915050565b610a8c816109ad565b8114610a9757600080fd5b50565b600081359050610aa981610a83565b92915050565b600060208284031215610ac557610ac46109e1565b5b6000610ad384828501610a9a565b91505092915050565b610ae581610a06565b8114610af057600080fd5b50565b600081359050610b0281610adc565b92915050565b600060208284031215610b1e57610b1d6109e1565b5b6000610b2c84828501610af3565b91505092915050565b60008115159050919050565b610b4a81610b35565b82525050565b6000602082019050610b656000830184610b41565b92915050565b610b7481610a06565b82525050565b6000602082019050610b8f6000830184610b6b565b92915050565b600081519050610ba481610a83565b92915050565b600060208284031215610bc057610bbf6109e1565b5b6000610bce84828501610b95565b91505092915050565b600082825260208201905092915050565b7f4f6e6c792074686520636f6e7472616374206f776e65722063616e2063616c6c60008201527f20746869732066756e6374696f6e000000000000000000000000000000000000602082015250565b6000610c44602e83610bd7565b9150610c4f82610be8565b604082019050919050565b60006020820190508181036000830152610c7381610c37565b9050919050565b7f4e487b7100000000000000000000000000000000000000000000000000000000600052601160045260246000fd5b6000610cb4826109ad565b9150610cbf836109ad565b9250817fffffffffffffffffffffffffffffffffffffffffffffffffffffffffffffffff0483118215151615610cf857610cf7610c7a565b5b828202905092915050565b7f496e73756666696369656e742074696d6520656c61707365642073696e63652060008201527f6c617374207769746864726177616c202d2074727920616761696e206c61746560208201527f7200000000000000000000000000000000000000000000000000000000000000604082015250565b6000610d85604183610bd7565b9150610d9082610d03565b606082019050919050565b60006020820190508181036000830152610db481610d78565b9050919050565b7f526571756573742065786365656473206d6178696d756d20776974686472617760008201527f616c20616d6f756e74206f662031303030204943484300000000000000000000602082015250565b6000610e17603683610bd7565b9150610e2282610dbb565b604082019050919050565b60006020820190508181036000830152610e4681610e0a565b9050919050565b7f496e73756666696369656e742062616c616e636520696e20666175636574206660008201527f6f72207769746864726177616c20726571756573740000000000000000000000602082015250565b6000610ea9603583610bd7565b9150610eb482610e4d565b604082019050919050565b60006020820190508181036000830152610ed881610e9c565b9050919050565b7f52657175657374206d757374206e6f74206f726967696e6174652066726f6d2060008201527f61207a65726f206163636f756e74000000000000000000000000000000000000602082015250565b6000610f3b602e83610bd7565b9150610f4682610edf565b604082019050919050565b60006020820190508181036000830152610f6a81610f2e565b9050919050565b6000604082019050610f866000830185610b6b565b610f9360208301846109b7565b9392505050565b610fa381610b35565b8114610fae57600080fd5b50565b600081519050610fc081610f9a565b92915050565b600060208284031215610fdc57610fdb6109e1565b5b6000610fea84828501610fb1565b91505092915050565b6000610ffe826109ad565b9150611009836109ad565b9250827fffffffffffffffffffffffffffffffffffffffffffffffffffffffffffffffff0382111561103e5761103d610c7a565b5b82820190509291505056fea26469706673582212206777185d2c2b5d56bd414bb0c3999cacb7035ed051bfd6563d38e20f529440c364736f6c63430008090033",
  "immutableReferences": {},
  "source": "// SPDX-License-Identifier: MIT\r\n\r\npragma solidity ^0.8.0;\r\n\r\nimport \"@openzeppelin/contracts/token/ERC20/IERC20.sol\";\r\n\r\ncontract Faucet {\r\n    address payable owner;\r\n    IERC20 private _token;\r\n\r\n    // default  withdrawal amount - 50 tokens\r\n    uint256 public withdrawalAmount = 50 * (10 ** 18);\r\n    // default wait time - 3 days\r\n    uint256 public waitTime = 4320 minutes;\r\n\r\n    event Withdrawal(address indexed to, uint amount);\r\n    event Deposit(address indexed from, uint amount);\r\n\r\n    mapping(address => uint256) lastAccessTime;\r\n\r\n    constructor (IERC20 token) {\r\n        _token = token;\r\n        owner = payable(msg.sender);\r\n    }\r\n\r\n    // Accept any incoming amount\r\n    receive() external payable {\r\n        emit Deposit(msg.sender, msg.value);\r\n    }\r\n\r\n    // Give out ether to anyone who asks\r\n    function withdraw() public {\r\n        require(allowedToWithdraw(msg.sender), \"Insufficient time elapsed since last withdrawal - try again later\");\r\n        require(withdrawalAmount <= 1000 * (10 ** 18), \"Request exceeds maximum withdrawal amount of 1000 ICHC\");\r\n        require(_token.balanceOf(address(this)) >= withdrawalAmount, \"Insufficient balance in faucet for withdrawal request\");\r\n        require(msg.sender != address(0), \"Request must not originate from a zero account\");\r\n        \r\n        // Send the amount to the address that requested it\r\n        _token.transfer(msg.sender, withdrawalAmount);\r\n        \r\n        lastAccessTime[msg.sender] = block.timestamp + waitTime;\r\n    }\r\n\r\n    function getBalance() public view returns (uint256) {\r\n      return _token.balanceOf(address(this));\r\n    }\r\n\r\n    function allowedToWithdraw(address _address) public view returns (bool) {\r\n        if (lastAccessTime[_address] == 0) {\r\n            return true;\r\n        } else if (block.timestamp >= lastAccessTime[_address]) {\r\n            return true;\r\n        }\r\n        return false;\r\n    }\r\n\r\n    // setter for withdrawl amount\r\n    function setWithdrawalAmount(uint256 amount) public onlyOwner {\r\n        // Limit max withdrawal amount to 10,000 tokens\r\n        require(amount <= 10000 * (10 ** 18));\r\n        withdrawalAmount = amount * (10 ** 18);\r\n    }\r\n\r\n    // setter for wait time\r\n    function setWaitTime(uint256 amount) public onlyOwner {\r\n        waitTime = amount * 1 minutes;\r\n    }\r\n\r\n    // setter for ERC20 token\r\n    function setToken(IERC20 token) public onlyOwner {\r\n        _token = token;\r\n    }\r\n\r\n    // Contract destructor\r\n    function destroy() public onlyOwner {\r\n        selfdestruct(owner);\r\n    }\r\n\r\n    // Access control modifier\r\n    modifier onlyOwner {\r\n        require(msg.sender == owner, \"Only the contract owner can call this function\");\r\n        _;\r\n    }\r\n}",
  "sourcePath": "C:\\Projects\\cryptocurrencies\\ICHCToken\\ichctoken\\contracts\\Faucet.sol",
  "compiler": {
    "name": "solc",
    "version": "0.8.9+commit.e5eed63a.Emscripten.clang"
  },
  "schemaVersion": "3.4.3",
  "updatedAt": "2021-11-06T22:16:58.290Z",
  "devdoc": {
    "kind": "dev",
    "methods": {},
    "version": 1
  },
  "userdoc": {
    "kind": "user",
    "methods": {},
    "version": 1
  }
}